{
  "contractName": "Address",
  "abi": [
    {
      "constant": false,
      "inputs": [
        {
          "name": "self",
          "type": "Address.Data storage"
        },
        {
          "name": "value",
          "type": "address"
        }
      ],
      "name": "insert",
      "outputs": [
        {
          "name": "",
          "type": "bool"
        }
      ],
      "payable": false,
      "stateMutability": "nonpayable",
      "type": "function"
    },
    {
      "constant": false,
      "inputs": [
        {
          "name": "self",
          "type": "Address.Data storage"
        },
        {
          "name": "value",
          "type": "address"
        }
      ],
      "name": "remove",
      "outputs": [
        {
          "name": "",
          "type": "bool"
        }
      ],
      "payable": false,
      "stateMutability": "nonpayable",
      "type": "function"
    }
  ],
  "bytecode": "0x6102e7610030600b82828239805160001a6073146000811461002057610022565bfe5b5030600052607381538281f3007300000000000000000000000000000000000000003014608060405260043610610063576000357c0100000000000000000000000000000000000000000000000000000000900463ffffffff168063196140d114610068578063459f60cb146100cd575b600080fd5b81801561007457600080fd5b506100b360048036038101908080359060200190929190803573ffffffffffffffffffffffffffffffffffffffff169060200190929190505050610132565b604051808215151515815260200191505060405180910390f35b8180156100d957600080fd5b5061011860048036038101908080359060200190929190803573ffffffffffffffffffffffffffffffffffffffff1690602001909291905050506101f7565b604051808215151515815260200191505060405180910390f35b60008260000160008373ffffffffffffffffffffffffffffffffffffffff1673ffffffffffffffffffffffffffffffffffffffff16815260200190815260200160002060009054906101000a900460ff16151561019257600090506101f1565b60008360000160008473ffffffffffffffffffffffffffffffffffffffff1673ffffffffffffffffffffffffffffffffffffffff16815260200190815260200160002060006101000a81548160ff021916908315150217905550600190505b92915050565b60008260000160008373ffffffffffffffffffffffffffffffffffffffff1673ffffffffffffffffffffffffffffffffffffffff16815260200190815260200160002060009054906101000a900460ff161561025657600090506102b5565b60018360000160008473ffffffffffffffffffffffffffffffffffffffff1673ffffffffffffffffffffffffffffffffffffffff16815260200190815260200160002060006101000a81548160ff021916908315150217905550600190505b929150505600a165627a7a7230582084a15a470fd1a04ce654753ebbf2fc2d1498793d9fdf1557e940526bc89d74df0029",
  "source": "pragma solidity ^0.4.17;\n\nlibrary Address {\n  // We define a new struct datatype that will be used to\n  // hold its data in the calling contract.\n  struct Data { mapping(address=> bool) flags; }\n\n  function insert(Data storage self, address value) public\n      returns (bool)\n  {\n      if (self.flags[value])\n          return false;\n      self.flags[value] = true;\n      return true;\n  }\n\n  function remove(Data storage self, address value) public\n      returns (bool)\n  {\n      if (!self.flags[value])\n          return false; // not there\n      self.flags[value] = false;\n      return true;\n  }\n\n  function contains(Data storage self, address value) internal view\n      returns (bool)\n  {\n      return self.flags[value];\n  }\n}\n",
  "sourcePath": "/home/edureka/ETHEREUM-KYC-PROJECT/contracts/libraries/Address.sol",
  "compiler": {
    "name": "solc",
    "version": "0.4.24+commit.e67f0147.Emscripten.clang"
  },
  "schemaVersion": "2.0.1",
  "updatedAt": "2018-09-27T21:48:02.470Z"
}